:100000000C9462000C948A000C948A000C948A0070
:100010000C948A000C948A000C948A000C948A0038
:100020000C948A000C948A000C948A000C948A0028
:100030000C948A000C948A000C948A000C948A0018
:100040000C942B040C948A000C948A000C948A0063
:100050000C948A000C948A000C948A000C948A00F8
:100060000C948A000C948A000000000024002700F1
:100070002A0000000000250028002B0000000000DE
:1000800023002600290004040404040404040202DA
:100090000202020203030303030301020408102007
:1000A0004080010204081020010204081020000012
:1000B0000008000201000003040700000000000027
:1000C00000007D0611241FBECFEFD8E0DEBFCDBFFC
:1000D00011E0A0E0B1E0EEE2F2E102C005900D9285
:1000E000A234B107D9F721E0A2E4B1E001C01D922A
:1000F000AD36B207E1F710E0C2E6D0E004C02197C8
:10010000FE010E940F09C136D107C9F70E9475048C
:100110000C9415090C940000AF92BF92CF92DF921D
:10012000EF92FF920F931F93CF93DF936C017B01AC
:100130008B01040F151FEB015E01AE18BF08C0173D
:10014000D10759F06991D601ED91FC910190F081B0
:10015000E02DC6010995892B79F7C501DF91CF9173
:100160001F910F91FF90EF90DF90CF90BF90AF90D5
:100170000895833081F028F4813099F08230A9F01D
:1001800008958730A9F08830C9F08430B1F48091A7
:1001900080008F7D03C0809180008F7780938000E6
:1001A000089584B58F7784BD089584B58F7DFBCF86
:1001B0008091B0008F778093B00008958091B00057
:1001C0008F7DF9CF1F93CF93DF93282F30E0F90174
:1001D000E255FF4F8491F901E656FF4FD491F901A2
:1001E000EA57FF4FC491CC23A9F0162F81110E942A
:1001F000B900EC2FF0E0EE0FFF1FEE58FF4FA59176
:10020000B4918FB7F894EC91111108C0D095DE230A
:10021000DC938FBFDF91CF911F910895DE2BF8CF34
:10022000CF93DF9390E0FC01E656FF4F24918A576D
:100230009F4FFC0184918823D1F090E0880F991F93
:10024000FC01E859FF4FA591B491FC01EE58FF4F16
:10025000C591D491623071F49FB7F8943C91822F8C
:10026000809583238C93E8812E2B28839FBFDF9179
:10027000CF9108958FB7F894EC912E2B2C938FBFCC
:10028000F6CF8E3008F08E508770806480937C00AB
:1002900080917A00806480937A0080917A0086FD54
:1002A000FCCF809178009091790008953FB7F89441
:1002B0008091430190914401A0914501B091460184
:1002C00026B5A89B05C02F3F19F00196A11DB11DB1
:1002D0003FBFBA2FA92F982F8827BC01CD01620FED
:1002E000711D811D911D42E0660F771F881F991FA8
:1002F0004A95D1F708958F929F92AF92BF92CF9275
:10030000DF92EF92FF924B015C010E9456016B015C
:100310007C010E9456016C197D098E099F09683E77
:10032000734081059105A8F321E0821A9108A10884
:10033000B10888EEC80E83E0D81EE11CF11C8114C0
:100340009104A104B10429F7FF90EF90DF90CF90C2
:10035000BF90AF909F908F900895089590E080E0B7
:100360000895FC0101900020E9F73197AF01481B87
:10037000590BBC0185E591E00C948C008F929F9203
:10038000AF92BF920F931F93CF93DF93CDB7DEB79A
:10039000A1970FB6F894DEBF0FBECDBF19A24230B1
:1003A00008F44AE08E010F5D1F4F842E912CB12C72
:1003B000A12CA50194010E94ED08E62FB901CA0104
:1003C000EA30F4F4E05DD801EE938D01232B242B69
:1003D000252B79F790E080E0109719F0CD010E946D
:1003E000B101A1960FB6F894DEBF0FBECDBFDF916D
:1003F000CF911F910F91BF90AF909F908F900895D4
:10040000E95CE1CFCF93DF93EC0160E08E810E9445
:10041000E20061E08E810E94E20060E08E810E9435
:10042000E2008BE891E00197F1F7DF91CF91089519
:10043000CF92DF92EF92FF920F931F93CF93DF93B0
:100440006C017C0187E0E80EF11CD0E0C0E0062FD3
:1004500010E0B8010C2E02C0759567950A94E2F77A
:100460006170F70181917F010E94E2002196C43002
:10047000D10579F7C601DF91CF911F910F91FF90C0
:10048000EF90DF90CF900C940202CF92DF92EF9228
:10049000FF920F931F93CF93DF93EC01F62E642FFF
:1004A0008C810E94E2008D818F3F19F060E00E94F4
:1004B000E2000F2D10E08F8584FF25C06E0187E0DC
:1004C000C80ED11CF12CE12CB8010E2C02C0759580
:1004D00067950A94E2F76170F60181916F010E94BD
:1004E000E200FFEFEF1AFF0A88E0E816F10461F777
:1004F000CE01DF91CF911F910F91FF90EF90DF9090
:10050000CF900C940202B80184E0759567958A95A6
:10051000E1F7CE010E9418026F2DCE01DF91CF913D
:100520001F910F91FF90EF90DF90CF900C941802E5
:1005300040E0682F85E591E00C94450281E00E943F
:1005400098028BE39FE10197F1F70895CF93DF9332
:10055000823029F4909164019860909364018093B3
:1005600068011092690180E480936A0180E18093C0
:100570006B0180E580936C0161E0809159010E94DC
:10058000100180915A018F3F19F061E00E94100123
:1005900061E080915B010E941001C5E5D1E09E0100
:1005A000255531408091640184FD0BC084E090E0CA
:1005B00021962817390744F461E08E810E941001CA
:1005C000EECF88E090E0F4CF8BE39DE00197F1F768
:1005D00060E0809159010E94E20060E080915B013F
:1005E0000E94E20080915A018F3F19F060E00E9462
:1005F000E2008091640184FD34C063E085E591E010
:100600000E941802CBE4D6E4CE010197F1F763E033
:1006100085E591E00E9418022197F1F763E085E5F6
:1006200091E00E94180283E592E00197F1F762E001
:1006300085E591E00E9418028091640180620E9429
:10064000980284E0809365018CE00E9498020E94E9
:100650009E0282E08093660186E0DF91CF910C9448
:10066000980280620E9498028BE496E40197F1F769
:100670008091640180620E94980283E592E0019774
:10068000F1F78091640180620E949802D5CF41E029
:100690000E94450281E090E008954F925F926F9230
:1006A0007F928F929F92AF92BF92CF92DF92EF9202
:1006B000FF920F931F93CF936B017C01742EAC01BB
:1006C0009B010E94E808882399F08CE091E0CF918B
:1006D0001F910F91FF90EF90DF90CF90BF90AF9060
:1006E0009F908F907F906F905F904F900C94B1018E
:1006F00046015701E894B7F82FEF3FEF4FE75FE768
:10070000C501B4010E94E80881110DC02FEF3FEF31
:100710004FE75FE7C501B4010E941E0718161CF4DD
:1007200080E191E0D4CF2FEF3FEF4FE75FE4C701C7
:10073000B6010E94760818161CF484E191E0C7CF38
:100740002FEF3FEF4FE75FECC701B6010E941E0796
:1007500087FDF3CF20E030E0A901C701B6010E9478
:100760001E0710E000E087FF0CC041E06DE285E568
:1007700091E00E944502F7FAF094F7F8F09401E056
:1007800010E0C0E060E070E080E09FE37C1641F0A4
:1007900020E030E040E251E40E942307CF5FF6CF33
:1007A000A70196010E94B2064B015C010E949507C9
:1007B0002B013C014AE00E94BE01080F191FCC2307
:1007C000C9F1C301B2010E94C4079B01AC01C5017C
:1007D000B4010E94B1064B015C0141E06EE285E587
:1007E00091E00E9445020F5F1F4FC15018F120E0B9
:1007F00030E040E251E4C501B4010E947B082B01C6
:100800003C010E9495074B01B12CA12C4AE0C50187
:10081000B4010E94BE01080F191FC501B4010E9456
:10082000C4079B01AC01C301B2010E94B1064B0198
:100830005C01DBCFC801CF911F910F91FF90EF902A
:10084000DF90CF90BF90AF909F908F907F906F90F0
:100850005F904F9008951F920F920FB60F92112440
:100860002F933F938F939F93AF93BF9380914701B3
:1008700090914801A0914901B0914A013091420103
:1008800023E0230F2D3758F50196A11DB11D2093AC
:1008900042018093470190934801A0934901B0938E
:1008A0004A018091430190914401A0914501B0918A
:1008B00046010196A11DB11D80934301909344010F
:1008C000A0934501B0934601BF91AF919F918F9145
:1008D0003F912F910F900FBE0F901F90189526E813
:1008E000230F0296A11DB11DD2CFCF93DF93CDB7B9
:1008F000DEB72A970FB6F894DEBF0FBECDBF78944F
:1009000084B5826084BD84B5816084BD85B5826014
:1009100085BD85B5816085BD80916E0081608093C5
:100920006E0010928100809181008260809381002E
:10093000809181008160809381008091800081603E
:10094000809380008091B10084608093B100809199
:10095000B00081608093B00080917A0084608093C1
:100960007A0080917A00826080937A0080917A0088
:10097000816080937A0080917A00806880937A0009
:100980001092C10062E08FE00E94100182E00E949C
:10099000A60288E191E00E94B101E0916801E23095
:1009A00008F07BC1E150F0E0EB5AFE4F848980688B
:1009B0000E94980289E291E00E94B10160ED77E027
:1009C00080E090E00E947B010E949E029E012F5FCA
:1009D0003F4F3A8729871E0139E0230E311C2FB77C
:1009E000F89460914701709148018091490190917C
:1009F0004A012FBF28EE33E040E050E00E94ED08AE
:100A000029013A0181E10E944101BC01990F880B43
:100A1000990B0E94C6074B015C0182E10E944101D3
:100A20008C012AE038E240EA5BE3C501B4010E9490
:100A30007B084B015C01B801110F880B990B0E94D8
:100A4000C6072AE038E240EA5BE30E947B082AE01E
:100A500037ED43E25CE30E947B086B017C018982F5
:100A60009A82AB82BC82CD82DE82EF82F886E1E0A0
:100A7000809168018111E0E0E195F0E0EB5AFE4FD2
:100A8000848980680E9498028FE391E00E94B101FE
:100A900042E0C501B4010E944D0381E391E00E9450
:100AA000B10184E391E00E94B10142E0C701B601C7
:100AB0000E944D03A7019601C501B4010E947B0865
:100AC0004B015C01E0916801E23008F0E8C0E150C0
:100AD000F0E0EB5AFE4F848980680E94980287E319
:100AE00091E00E94B10142E0C501B4010E944D03B2
:100AF0008091510190915201A0915301B091540104
:100B0000A3019201281B390B4A0B5B0BDA01C901C7
:100B10000197A105B10539F580904F0190905001E2
:100B2000AE014F5F5F4F6A0110E000E0F601F19007
:100B30006F015401A00EB11EC5010E949B06F8165C
:100B400021F06F2DC5010E94A3060F5F1F4F0830D3
:100B5000110561F780914F01909150010896909393
:100B6000500180934F014092510150925201609286
:100B7000530170925401EDEBF0E08491E9EAF0E06A
:100B80000491E5E9F0E0149111118BC02FB7F894AE
:100B90008091470190914801A0914901B0914A018B
:100BA0002FBF40914B0150914C0160914D017091CC
:100BB0004E01841B950BA60BB70B85369105A1053D
:100BC000B10508F47DC02FB7F8948091470190914A
:100BD0004801A0914901B0914A012FBF80934B0178
:100BE00090934C01A0934D01B0934E010E949E0240
:100BF00009851A85119501951109812C912C5401B3
:100C0000839420914F013091500181E090E08C0F4E
:100C10009D1F800F911F821793070CF051C09E01FA
:100C20002F5F3F4F6901C8018C0D9D1D0E949B06DF
:100C3000F60181936F012E163F06A9F70E949E02CE
:100C40004AE0C501B4010E94BE018EE391E00E941A
:100C5000B10169817A818B819C8142E00E944D03C0
:100C600081E391E00E94B10184E391E00E94B1012F
:100C70006D817E818F81988542E00E944D0368EEF0
:100C800073E080E090E00E947B01FFEF8F1A9F0AE3
:100C9000AF0ABF0A085F1F4FB4CFE1E084CEE1E0A6
:100CA00017CF81110E94B900E12FF0E0EE0FFF1F76
:100CB000E458FF4FA591B4918C91082309F466CFB5
:100CC00080914F01909150018035910531F428E4D5
:100CD00030E03093500120934F0168EC70E080E0E9
:100CE00090E00E947B010E949E0240E050E0452B74
:100CF00009F475CE0E94000072CEE5E5F1E01382A2
:100D0000128284E091E0918380838CE084838FEF72
:100D100085838BE0868385E0878384E0808783E01A
:100D2000818782E082871386148615861686178649
:100D300081E00C94A602F999FECF92BD81BDF89A8C
:100D4000992780B50895262FF999FECF1FBA92BD35
:100D500081BD20BD0FB6F894FA9AF99A0FBE01969C
:100D600008955058BB27AA270E94C9060C943C0836
:100D70000E942E0838F00E94350820F039F49F3F79
:100D800019F426F40C942B080EF4E095E7FB0C9470
:100D90002508E92F0E944D0858F3BA176207730718
:100DA0008407950720F079F4A6F50C946F080EF4EB
:100DB000E0950B2EBA2FA02D0B01B90190010C016B
:100DC000CA01A0011124FF27591B99F0593F50F483
:100DD000503E68F11A16F040A22F232F342F4427DB
:100DE000585FF3CF469537952795A795F0405395D3
:100DF000C9F77EF41F16BA0B620B730B840BBAF0A3
:100E00009150A1F0FF0FBB1F661F771F881FC2F70D
:100E10000EC0BA0F621F731F841F48F48795779521
:100E20006795B795F7959E3F08F0B0CF9395880FDB
:100E300008F09927EE0F9795879508950E9401086D
:100E400008F481E008950E9437070C943C080E9442
:100E5000350858F00E942E0840F029F45F3F29F031
:100E60000C94250851110C9470080C942B080E94C6
:100E70004D0868F39923B1F3552391F3951B550B56
:100E8000BB27AA2762177307840738F09F5F5F4F5D
:100E9000220F331F441FAA1FA9F335D00E2E3AF09C
:100EA000E0E832D091505040E695001CCAF72BD0B4
:100EB000FE2F29D0660F771F881FBB1F2617370705
:100EC0004807AB07B0E809F0BB0B802DBF01FF2737
:100ED00093585F4F3AF09E3F510578F00C942508E7
:100EE0000C9470085F3FE4F3983ED4F386957795B1
:100EF0006795B795F7959F5FC9F7880F911D9695F0
:100F0000879597F90895E1E0660F771F881FBB1F4B
:100F1000621773078407BA0720F0621B730B840BF8
:100F2000BA0BEE1F88F7E09508950E94550888F0E7
:100F30009F5798F0B92F9927B751B0F0E1F0660F9D
:100F4000771F881F991F1AF0BA95C9F714C0B130DE
:100F500091F00E946F08B1E008950C946F08672F1C
:100F6000782F8827B85F39F0B93FCCF3869577950D
:100F70006795B395D9F73EF49095809570956195F6
:100F80007F4F8F4F9F4F0895E89409C097FB3EF421
:100F900090958095709561957F4F8F4F9F4F9923C6
:100FA000A9F0F92F96E9BB279395F6958795779544
:100FB0006795B795F111F8CFFAF4BB0F11F460FF04
:100FC0001BC06F5F7F4F8F4F9F4F16C0882311F05C
:100FD00096E911C0772321F09EE8872F762F05C070
:100FE000662371F096E8862F70E060E02AF09A950B
:100FF000660F771F881FDAF7880F9695879597F900
:101000000895990F0008550FAA0BE0E8FEEF161699
:101010001706E807F907C0F012161306E407F507EC
:1010200098F0621B730B840B950B39F40A2661F060
:10103000232B242B252B21F408950A2609F4A14003
:10104000A6958FEF811D811D089597F99F6780E810
:1010500070E060E008959FEF80EC089500240A940A
:101060001616170618060906089500240A94121683
:101070001306140605060895092E0394000C11F4B6
:10108000882352F0BB0F40F4BF2B11F460FF04C063
:101090006F5F7F4F8F4F9F4F089557FD9058440FBC
:1010A000551F59F05F3F71F04795880F97FB991FC7
:1010B00061F09F3F79F08795089512161306140684
:1010C000551FF2CF4695F1DF08C016161706180611
:1010D000991FF1CF86957105610508940895E894EC
:1010E000BB2766277727CB0197F908950E9401084F
:1010F00008F48FEF08950E948E080C943C080E941B
:101100002E0838F00E94350820F0952311F00C9439
:1011100025080C942B0811240C9470080E944D088B
:1011200070F3959FC1F3950F50E0551F629FF0013A
:10113000729FBB27F00DB11D639FAA27F00DB11D53
:10114000AA1F649F6627B00DA11D661F829F2227DC
:10115000B00DA11D621F739FB00DA11D621F839F63
:10116000A00D611D221F749F3327A00D611D231F39
:10117000849F600D211D822F762F6A2F11249F5787
:1011800050409AF0F1F088234AF0EE0FFF1FBB1F8A
:10119000661F771F881F91505040A9F79E3F510549
:1011A00080F00C9425080C9470085F3FE4F3983E9F
:1011B000D4F3869577956795B795F795E7959F5FF3
:1011C000C1F7FE2B880F911D9695879597F9089585
:1011D0000E940108880B990B0895A1E21A2EAA1B00
:1011E000BB1BFD010DC0AA1FBB1FEE1FFF1FA217D7
:1011F000B307E407F50720F0A21BB30BE40BF50BD4
:10120000661F771F881F991F1A9469F7609570955C
:10121000809590959B01AC01BD01CF010895EE0F23
:0E122000FF1F0590F491E02D0994F894FFCF84
:10122E000000000047038C00AE01AD016E616E0040
:10123E00696E66006F7666002041726475696E6F26
:10124E0020546573746572200020544C494231203D
:10125E0000202000493D00506F7765723D002956F1
:02126E003D0041
:00000001FF
